:100000000C9458000C9480000C9480000C94F40420
:100010000C94F4040C94F4040C9480000C94800070
:100020000C9480000C9480000C9480000C94800050
:100030000C9480000C9480000C9480000C94800040
:100040000C94AA040C9480000C9478040C94520430
:100050000C9480000C9480000C9480000C94800020
:100060000C9480000C948000000000002500280003
:100070002B00040404040404040402020202020229
:10008000030303030303010204081020408001025C
:1000900004081020010204081020000000080002DB
:1000A0000100000304070000000000000000FE043F
:1000B00011241FBECFEFD8E0DEBFCDBF11E0A0E01E
:1000C000B1E0E4E9F0E102C005900D92A834B10777
:1000D000D9F722E0A8E4B1E001C01D92AD33B20728
:1000E000E1F710E0C8E5D0E004C02197FE010E94CE
:1000F0001B08C735D107C9F70E9431050C94480881
:100100000C940000E2E9F1E0A089B18982E08C93CF
:10011000A485B5851C92A685B7858FEC8C93108E2F
:10012000A489B58986E08C93A289B3898C9180617A
:100130008C93A289B3898C9188608C93A289B389AE
:100140008C9180688C930288F389E02D80818F7D6B
:1001500080830895CF92DF92EF92FF920F931F93C7
:10016000CF93DF936C017A018B01C0E0D0E0CE1514
:10017000DF0589F0D8016D918D01D601ED91FC91DB
:100180000190F081E02DC6010995892B11F47E01C3
:1001900002C02196ECCFC701DF91CF911F910F9143
:1001A000FF90EF90DF90CF900895FC01918D828DAC
:1001B000981761F0828DDF01A80FB11D5D968C91BB
:1001C000928D9F5F9F73928F90E008958FEF9FEFC6
:1001D0000895FC01918D828D981731F0828DE80F82
:1001E000F11D858D90E008958FEF9FEF0895FC013C
:1001F000918D228D892F90E0805C9F4F821B910909
:100200008F739927089582E991E00E94F70021E019
:10021000892B09F420E0822F0895FC01848DDF01F1
:10022000A80FB11DA35ABF4F2C91848D90E0019669
:100230008F739927848FA689B7892C93A089B18958
:100240008C9180648C93938D848D981306C0028862
:10025000F389E02D80818F7D80830895EF92FF9256
:100260000F931F93CF93DF93EC0181E0888F9B8DD9
:100270008C8D981305C0E889F989808185FD24C09B
:10028000F62E0B8D10E00F5F1F4F0F731127E02E1E
:100290008C8DE8120CC00FB607FCFACFE889F989FB
:1002A000808185FFF5CFCE010E940D01F1CF8B8DAE
:1002B000FE01E80FF11DE35AFF4FF0820B8FEA8930
:1002C000FB898081806207C0EE89FF896083E889AD
:1002D000F98980818064808381E090E0DF91CF9113
:1002E0001F910F91FF90EF900895CF93DF93EC0152
:1002F000888D8823C9F0EA89FB89808185FD05C046
:10030000A889B9898C9186FD0FC00FB607FCF5CF7F
:10031000808185FFF2CFA889B9898C9185FFEDCFC7
:10032000CE010E940D01E7CFDF91CF91089580E0CB
:1003300090E0892B29F00E94030181110C940000A8
:10034000089590E0FC01E656FF4F3491FC01EA5716
:10035000FF4F2491FC01EE58FF4FE491EE2309F486
:100360003BC0332339F1333091F038F43130A9F008
:10037000323001F584B58F7D12C0373091F03830BE
:10038000A1F03430B9F4809180008F7D03C080915A
:1003900080008F77809380000DC084B58F7784BDF7
:1003A00009C08091B0008F7703C08091B0008F7D2D
:1003B0008093B000F0E0EE0FFF1FE859FF4FA591CA
:1003C000B4918FB7F894EC91611103C020952E235E
:1003D00001C02E2B2C938FBF08953FB7F8948091C6
:1003E0004F0190915001A0915101B091520126B559
:1003F000A89B05C02F3F19F00196A11DB11D3FBF5D
:10040000BA2FA92F982F8827820F911DA11DB11DEA
:10041000BC01CD0142E0660F771F881F991F4A95E6
:10042000D1F708958F929F92AF92BF92CF92DF92B1
:10043000EF92FF926B017C010E94ED014B015C0188
:10044000C114D104E104F104F1F00E94ED01DC01DA
:10045000CB0188199909AA09BB09883E9340A105D7
:10046000B10570F321E0C21AD108E108F10888EE65
:10047000880E83E0981EA11CB11CC114D104E104B4
:10048000F10419F7DDCFFF90EF90DF90CF90BF9090
:10049000AF909F908F9008952FB7F89460914B0183
:1004A00070914C0180914D0190914E012FBF0895A4
:1004B00008958EBD00000DB407FEFDCF8EB50895E2
:1004C0008CBD9DBD08950F931F93CF93C82F83E5D7
:1004D00090E00E9460020FE212E060E0F801848583
:1004E0000E94A1018C2F8E7780680E94590280E0C3
:1004F0000E945902C82F61E0F80184850E94A10181
:100500008C2FCF911F910F9108950F931F93CF932D
:10051000DF93082F162F83E590E00E946002CFE260
:10052000D2E060E08C850E94A101802F8E770E942E
:100530005902812F0E94590261E08C85DF91CF9191
:100540001F910F910C94A101CF93C82F0E946302B9
:10055000682F60688C2FCF910C948502CF92DF9228
:10056000FF920F931F93CF93DF931F92CDB7DEB708
:10057000082F162F83E590E079830E94600260E0E7
:1005800080913B020E94A10182E10E945902F12E5A
:10059000C12E7981D72E8C2D8F19801730F4F6015A
:1005A00081916F010E945902F6CF61E080913B0278
:1005B0000F90DF91CF911F910F91FF90DF90CF901F
:1005C0000C94A101EF92FF920F931F93CF93DF93AF
:1005D0007C01C62F8A0160E082E00E94850264E00F
:1005E0008AE00E94850284E10E94A402B7018C2F58
:1005F0000E94AE0263E082E00E948502C8E8D3E177
:100600008AE00E94630282FD05C02197C9F783E05A
:1006100090E010C060E082E00E94850284E40E94C5
:100620006302F801808382E40E946302F8018183FF
:1006300080E090E0DF91CF911F910F91FF90EF90BC
:1006400008957F928F929F92AF92BF92CF92DF9246
:10065000EF92FF920F931F93CF93DF934C01F62EEF
:10066000EA01590168010115110519F0F80190819D
:1006700001C090E0192FF0E1EF9E100D112460E011
:1006800082E00E9485026FE788E00E94850284E193
:100690000E94A402B4018F2D0E94AE02612F8AE154
:1006A0000E9485026CE082E00E9485028AE10E943D
:1006B000A40200ED17E088E00E946302982F907377
:1006C00031F480FD76C001501109A9F772C08CE0A9
:1006D0000E946302F82E837109F06EC0209709F41E
:1006E00063C0A114B10409F45FC084E10E946302F5
:1006F000182FF5018081811708F461C01083112340
:1007000009F449C083E590E00E94600260E08091B6
:100710003B020E94A1010FEF010F82E90E945902E2
:100720007C2E8C2E9D2EAA24A394B12C882D871963
:10073000801730F581111BC0EE20C9F09E2D10E00E
:10074000983048F49501092E01C0220F0A94EAF767
:10075000122B9F5FF5CF82E90E945902212F20952D
:10076000988192238123192F182B188305C082E9C1
:100770000E945902F4018083FFEF8F1A9F0AD6CF9F
:10078000C00FD11D80E00E945902888361E08091F2
:100790003B020E94A10188E10E9463028770C1149C
:1007A000D10411F0F6018083F3FC0CC080E090E0EE
:1007B0000BC083E090E008C081E090E005C084E0D9
:1007C00090E002C082E090E0DF91CF911F910F9105
:1007D000FF90EF90DF90CF90BF90AF909F908F9061
:1007E0007F9008956115710579F0FB01019000205B
:1007F000E9F73197AF01461B570BDC01ED91FC91F6
:100800000280F381E02D099480E090E008954F92FA
:100810005F926F927F92EF92FF920F931F93CF930D
:10082000DF93CDB7DEB7A1970FB6F894DEBF0FBE4A
:10083000CDBF7C01FA01CB0119A2223008F42AE0D5
:100840008E010F5D1F4F422E512C612C712CBF0168
:10085000A30192010E942608F901CA010150110961
:100860006A3014F4605D01C0695CD8016C93232B7D
:10087000242B252B61F7B801C7010E94F203A19632
:100880000FB6F894DEBF0FBECDBFDF91CF911F91A1
:100890000F91FF90EF907F906F905F904F90089531
:1008A0000E9421081F920F920FB60F9211242F93CE
:1008B0003F934F935F936F937F938F939F93AF93E8
:1008C000BF93EF93FF9382E991E00E940D01FF91A6
:1008D000EF91BF91AF919F918F917F916F915F91B8
:1008E0004F913F912F910F900FBE0F901F90189531
:1008F0001F920F920FB60F9211242F938F939F93F5
:10090000EF93FF93E091A201F091A3018081E09128
:10091000A801F091A90182FD12C090818091AB01E4
:100920008F5F8F732091AC01821751F0E091AB0182
:10093000F0E0EE56FE4F958F8093AB0101C08081B1
:10094000FF91EF919F918F912F910F900FBE0F907C
:100950001F9018951F920F920FB60F9211242F938C
:100960003F938F939F93AF93BF9380914B0190914F
:100970004C01A0914D01B0914E0130914A0123E00C
:10098000230F2D3720F40196A11DB11D05C026E8C7
:10099000230F0296A11DB11D20934A0180934B01A4
:1009A00090934C01A0934D01B0934E0180914F0163
:1009B00090915001A0915101B09152010196A11D59
:1009C000B11D80934F0190935001A0935101B093BA
:1009D0005201BF91AF919F918F913F912F910F90B5
:1009E0000FBE0F901F9018951F920F920FB60F9287
:1009F00011240F900FBE0F901F901895E2E9F1E0BF
:100A00001382128288EE93E0A0E0B0E084839583A5
:100A1000A683B78384E091E09183808385EC90E0A6
:100A20009587848784EC90E09787868780EC90E0B8
:100A3000918B808B81EC90E0938B828B82EC90E0A9
:100A4000958B848B86EC90E0978B868B118E128E23
:100A5000138E148EEFE2F2E08AE0848789E08587C6
:100A60000895CF93DF93CDB7DEB72C970FB6F894E8
:100A7000DEBF0FBECDBF789484B5826084BD84B5DF
:100A8000816084BD85B5826085BD85B5816085BD89
:100A900080916E00816080936E0010928100809141
:100AA00081008260809381008091810081608093C9
:100AB0008100809180008160809380008091B100EE
:100AC00084608093B1008091B00081608093B00019
:100AD00080917A00846080937A0080917A008260AD
:100AE00080937A0080917A00816080937A0080916F
:100AF0007A00806880937A001092C100109286017B
:100B0000109287011092880110928901109254016D
:100B100010925501109256011092570160ED77E046
:100B200080E090E00E94120282E991E090938501BA
:100B3000809384010E9482000E944C02C090540164
:100B4000D0905501E0905601F0905701DC01CB01A7
:100B50008C199D09AE09BF0984369105A105B1051F
:100B600038F463E070E080E090E00E941202E4CF8D
:100B70000E944C026093540170935501809356017A
:100B80009093570160E171E080918401909185011B
:100B90000E94F2036AE070E080E090E00E9412029E
:100BA00081E0809358010E94820062E271E082E954
:100BB00091E00E94F20365E471E082E991E00E9415
:100BC000F2030E944C02672B682B692B09F055C178
:100BD0000E944C02623071058105910508F04DC1FB
:100BE0003DC00E944C026093540170935501809364
:100BF00056019093570165E271E0809184019091D4
:100C000085010E94F2036DE271E080918401909170
:100C100085010E94F2030E944C02AB01BC012AE054
:100C200080918401909185010E9407046FE271E038
:100C300080918401909185010E94F20365E070E04B
:100C400080E090E00E9412026AE070E080E090E0B4
:100C50000E9412028091580181116AC182E08B8743
:100C600086E28C878CE10E946302682F6F778CE1AB
:100C70000E94850287E08A87E12C8E01065F1F4F64
:100C80009E01255F3F4FAE014F5F5F4F61E0CE0198
:100C90000C960E942103009771F48B85823049F4F1
:100CA00031E020E08A85811101C030E0832F922F4E
:100CB00002C081E090E0009719F0029709F08FC11F
:100CC0008CE10E946302682F6F778CE10E9485029D
:100CD000E7E0BE2E83E98983FF24F394812C60E74B
:100CE000A62E73E0972E712C972D97709B8780E22C
:100CF000890F8A8381E0911101C080E092E0692E22
:100D0000680EBA869E012D5F3F4F6901EB846E2D00
:100D10006295607F6E0D8AE10E9485028E01055FFB
:100D20001F4F9E01265F3F4FA601662DCE01019603
:100D30000E9421038230910579F48CE10E946302C4
:100D400085FD8CC031E037150CF491C08B81826039
:100D50008B8382E0782EC8CF009709F08AC040E2EA
:100D60007416F1F030E2732EAA829C818B81892760
:100D70009D8189279E8189278F83AE01485F5F4FC0
:100D800067E0CE0101960E94E202009709F071C06F
:100D90001B869A86FE0137966F0129E0622EB6CF38
:100DA0008B81883819F433E023E002C032E024E07C
:100DB00080E090E0682D70E0FC01E60FF71FE15D38
:100DC000FD4F432F480FA1E0B0E0AC0FBD1FA40FB3
:100DD000B11D4C9141830196821770F38A8583304F
:100DE00009F03FC08B8581113CC0AE014D5F5F4F64
:100DF00061E0C6010E94E2020097D9F59B81D6010D
:100E000011968C91119798132FC09C8112968C91FA
:100E10001297981329C08C9182FF15C0F394B2E009
:100E2000FB1205C085E9898353E0852E5CCFE3E0A2
:100E3000FE1205C087E9898346E0842E54CFF1E095
:100E4000FF1215C047CF80933A028F2D880FF80EFE
:100E5000F394F0922F0280E090E00BC082E090E0EB
:100E600008C081E090E005C087E090E002C085E026
:100E700090E0892B09F4BCC0B2C00E944C02609380
:100E80008E0170938F018093900190939101C09097
:100E90008A01D0908B01E0908C01F0908D016C154F
:100EA0007D058E059F0540F460938A0170938B0148
:100EB00080938C0190938D01C0908A01D0908B011A
:100EC000E0908C01F0908D019B01AC012C193D0943
:100ED0004E095F0969017A013AEFC316D104E104B2
:100EE000F10408F4BBCE60938A0170938B01809368
:100EF0008C0190938D010E944C02C0905401D090BF
:100F00005501E0905601F0905701DC01CB018C199E
:100F10009D09AE09BF0984369105A105B10508F008
:100F200060CE63E070E080E090E00E941202E3CFC8
:100F30008091840190918501DC01ED91FC91048008
:100F4000F581E02D0995892B99F380918401909189
:100F50008501DC01ED91FC910480F581E02D09957E
:100F6000181619060CF07ACE8091840190918501B3
:100F7000DC01ED91FC910680F781E02D0995992720
:100F80008336910551F08637910509F467CE88358F
:100F90009105D9F610925801D8CF68E371E080919D
:100FA0008401909185010E94F2032AE041E050E023
:100FB00060E070E080918401909185010E940704B7
:100FC0006FE371E080918401909185010E94F203AA
:100FD00062E370E080E090E00E9412023FCE62E3A4
:100FE00070E080E090E00E9412020E949701E9CD3B
:100FF000809130024091310250E060E070E0480F93
:10100000511D611D711D80913202480F511D611DDE
:10101000711D80913302480F511D611D711D2AE021
:1010200082E991E00E94070465E471E082E991E0C1
:101030000E94F203DACFEE0FFF1F0590F491E02D2E
:10104000099481E090E0F8940C944808A1E21A2EEB
:10105000AA1BBB1BFD010DC0AA1FBB1FEE1FFF1F5C
:10106000A217B307E407F50720F0A21BB30BE40BAC
:10107000F50B661F771F881F991F1A9469F76095F3
:101080007095809590959B01AC01BD01CF010895AD
:04109000F894FFCF02
:10109400000000002E01AA00F700D500E900750148
:1010A400564D4450565F317C315F564D4450560D79
:1010B4000A00616100564D4450455F31007C005F79
:1010C400564D4450450D0A00564D4450435F005F51
:0810D400564D4450430D0A0083
:00000001FF
